{
  "_format": "hh-sol-artifact-1",
  "contractName": "ChickenNFT",
  "sourceName": "contracts/ChickenNFT.sol",
  "abi": [
    {
      "inputs": [],
      "stateMutability": "nonpayable",
      "type": "constructor"
    },
    {
      "anonymous": false,
      "inputs": [
        {
          "indexed": true,
          "internalType": "address",
          "name": "owner",
          "type": "address"
        },
        {
          "indexed": true,
          "internalType": "address",
          "name": "approved",
          "type": "address"
        },
        {
          "indexed": true,
          "internalType": "uint256",
          "name": "tokenId",
          "type": "uint256"
        }
      ],
      "name": "Approval",
      "type": "event"
    },
    {
      "anonymous": false,
      "inputs": [
        {
          "indexed": true,
          "internalType": "address",
          "name": "owner",
          "type": "address"
        },
        {
          "indexed": true,
          "internalType": "address",
          "name": "operator",
          "type": "address"
        },
        {
          "indexed": false,
          "internalType": "bool",
          "name": "approved",
          "type": "bool"
        }
      ],
      "name": "ApprovalForAll",
      "type": "event"
    },
    {
      "anonymous": false,
      "inputs": [
        {
          "indexed": false,
          "internalType": "address",
          "name": "sender",
          "type": "address"
        },
        {
          "indexed": false,
          "internalType": "uint256",
          "name": "tokenId",
          "type": "uint256"
        }
      ],
      "name": "NewChickenNFTMinted",
      "type": "event"
    },
    {
      "anonymous": false,
      "inputs": [
        {
          "indexed": true,
          "internalType": "address",
          "name": "from",
          "type": "address"
        },
        {
          "indexed": true,
          "internalType": "address",
          "name": "to",
          "type": "address"
        },
        {
          "indexed": true,
          "internalType": "uint256",
          "name": "tokenId",
          "type": "uint256"
        }
      ],
      "name": "Transfer",
      "type": "event"
    },
    {
      "inputs": [
        {
          "internalType": "address",
          "name": "to",
          "type": "address"
        },
        {
          "internalType": "uint256",
          "name": "tokenId",
          "type": "uint256"
        }
      ],
      "name": "approve",
      "outputs": [],
      "stateMutability": "nonpayable",
      "type": "function"
    },
    {
      "inputs": [
        {
          "internalType": "address",
          "name": "owner",
          "type": "address"
        }
      ],
      "name": "balanceOf",
      "outputs": [
        {
          "internalType": "uint256",
          "name": "",
          "type": "uint256"
        }
      ],
      "stateMutability": "view",
      "type": "function"
    },
    {
      "inputs": [
        {
          "internalType": "uint256",
          "name": "tokenId",
          "type": "uint256"
        }
      ],
      "name": "getApproved",
      "outputs": [
        {
          "internalType": "address",
          "name": "",
          "type": "address"
        }
      ],
      "stateMutability": "view",
      "type": "function"
    },
    {
      "inputs": [
        {
          "internalType": "address",
          "name": "owner",
          "type": "address"
        },
        {
          "internalType": "address",
          "name": "operator",
          "type": "address"
        }
      ],
      "name": "isApprovedForAll",
      "outputs": [
        {
          "internalType": "bool",
          "name": "",
          "type": "bool"
        }
      ],
      "stateMutability": "view",
      "type": "function"
    },
    {
      "inputs": [],
      "name": "makeAChickenNFT",
      "outputs": [],
      "stateMutability": "nonpayable",
      "type": "function"
    },
    {
      "inputs": [],
      "name": "name",
      "outputs": [
        {
          "internalType": "string",
          "name": "",
          "type": "string"
        }
      ],
      "stateMutability": "view",
      "type": "function"
    },
    {
      "inputs": [
        {
          "internalType": "uint256",
          "name": "tokenId",
          "type": "uint256"
        }
      ],
      "name": "ownerOf",
      "outputs": [
        {
          "internalType": "address",
          "name": "",
          "type": "address"
        }
      ],
      "stateMutability": "view",
      "type": "function"
    },
    {
      "inputs": [
        {
          "internalType": "uint256",
          "name": "tokenId",
          "type": "uint256"
        }
      ],
      "name": "pickRandomColor",
      "outputs": [
        {
          "internalType": "string",
          "name": "",
          "type": "string"
        }
      ],
      "stateMutability": "view",
      "type": "function"
    },
    {
      "inputs": [
        {
          "internalType": "uint256",
          "name": "tokenId",
          "type": "uint256"
        }
      ],
      "name": "pickRandomFirstWord",
      "outputs": [
        {
          "internalType": "string",
          "name": "",
          "type": "string"
        }
      ],
      "stateMutability": "view",
      "type": "function"
    },
    {
      "inputs": [
        {
          "internalType": "uint256",
          "name": "tokenId",
          "type": "uint256"
        }
      ],
      "name": "pickRandomSecondWord",
      "outputs": [
        {
          "internalType": "string",
          "name": "",
          "type": "string"
        }
      ],
      "stateMutability": "view",
      "type": "function"
    },
    {
      "inputs": [
        {
          "internalType": "uint256",
          "name": "tokenId",
          "type": "uint256"
        }
      ],
      "name": "pickRandomThirdWord",
      "outputs": [
        {
          "internalType": "string",
          "name": "",
          "type": "string"
        }
      ],
      "stateMutability": "view",
      "type": "function"
    },
    {
      "inputs": [
        {
          "internalType": "address",
          "name": "from",
          "type": "address"
        },
        {
          "internalType": "address",
          "name": "to",
          "type": "address"
        },
        {
          "internalType": "uint256",
          "name": "tokenId",
          "type": "uint256"
        }
      ],
      "name": "safeTransferFrom",
      "outputs": [],
      "stateMutability": "nonpayable",
      "type": "function"
    },
    {
      "inputs": [
        {
          "internalType": "address",
          "name": "from",
          "type": "address"
        },
        {
          "internalType": "address",
          "name": "to",
          "type": "address"
        },
        {
          "internalType": "uint256",
          "name": "tokenId",
          "type": "uint256"
        },
        {
          "internalType": "bytes",
          "name": "_data",
          "type": "bytes"
        }
      ],
      "name": "safeTransferFrom",
      "outputs": [],
      "stateMutability": "nonpayable",
      "type": "function"
    },
    {
      "inputs": [
        {
          "internalType": "address",
          "name": "operator",
          "type": "address"
        },
        {
          "internalType": "bool",
          "name": "approved",
          "type": "bool"
        }
      ],
      "name": "setApprovalForAll",
      "outputs": [],
      "stateMutability": "nonpayable",
      "type": "function"
    },
    {
      "inputs": [
        {
          "internalType": "bytes4",
          "name": "interfaceId",
          "type": "bytes4"
        }
      ],
      "name": "supportsInterface",
      "outputs": [
        {
          "internalType": "bool",
          "name": "",
          "type": "bool"
        }
      ],
      "stateMutability": "view",
      "type": "function"
    },
    {
      "inputs": [],
      "name": "symbol",
      "outputs": [
        {
          "internalType": "string",
          "name": "",
          "type": "string"
        }
      ],
      "stateMutability": "view",
      "type": "function"
    },
    {
      "inputs": [
        {
          "internalType": "uint256",
          "name": "tokenId",
          "type": "uint256"
        }
      ],
      "name": "tokenURI",
      "outputs": [
        {
          "internalType": "string",
          "name": "",
          "type": "string"
        }
      ],
      "stateMutability": "view",
      "type": "function"
    },
    {
      "inputs": [
        {
          "internalType": "address",
          "name": "from",
          "type": "address"
        },
        {
          "internalType": "address",
          "name": "to",
          "type": "address"
        },
        {
          "internalType": "uint256",
          "name": "tokenId",
          "type": "uint256"
        }
      ],
      "name": "transferFrom",
      "outputs": [],
      "stateMutability": "nonpayable",
      "type": "function"
    }
  ],
  "bytecode": "0x60806040526040518060c00160405280608c8152602001620046a4608c9139600890805190602001906200003592919062000812565b50604051806108a001604052806108718152602001620047556108719139600990805190602001906200006a92919062000812565b506040518060c001604052806040518060400160405280600381526020017f4d7920000000000000000000000000000000000000000000000000000000000081525081526020016040518060400160405280600281526020017f412000000000000000000000000000000000000000000000000000000000000081525081526020016040518060400160405280600581526020017f497427732000000000000000000000000000000000000000000000000000000081525081526020016040518060400160405280600581526020017f536f6d652000000000000000000000000000000000000000000000000000000081525081526020016040518060400160405280600581526020017f4a7573742000000000000000000000000000000000000000000000000000000081525081526020016040518060400160405280600581526020017f596f757220000000000000000000000000000000000000000000000000000000815250815250600a906006620001e8929190620008a3565b506040518060c001604052806040518060400160405280600581526020017f657069632000000000000000000000000000000000000000000000000000000081525081526020016040518060400160405280600581526020017f637574652000000000000000000000000000000000000000000000000000000081525081526020016040518060400160405280600581526020017f726172652000000000000000000000000000000000000000000000000000000081525081526020016040518060400160405280600581526020017f687567652000000000000000000000000000000000000000000000000000000081525081526020016040518060400160405280600581526020017f6e6963652000000000000000000000000000000000000000000000000000000081525081526020016040518060400160405280600781526020017f7072657474792000000000000000000000000000000000000000000000000000815250815250600b90600662000366929190620008a3565b506040518060c001604052806040518060400160405280600481526020017f4e4654210000000000000000000000000000000000000000000000000000000081525081526020016040518060400160405280600881526020017f636869636b656e2100000000000000000000000000000000000000000000000081525081526020016040518060400160405280600581526020017f4a5045472100000000000000000000000000000000000000000000000000000081525081526020016040518060400160405280600681526020017f746f6b656e21000000000000000000000000000000000000000000000000000081525081526020016040518060400160405280600781526020017f706978656c73210000000000000000000000000000000000000000000000000081525081526020016040518060400160405280600681526020017f70686f746f210000000000000000000000000000000000000000000000000000815250815250600c906006620004e4929190620008a3565b506040518060c001604052806040518060400160405280600781526020017f233135313531350000000000000000000000000000000000000000000000000081525081526020016040518060400160405280600381526020017f726564000000000000000000000000000000000000000000000000000000000081525081526020016040518060400160405280600681526020017f6f72616e6765000000000000000000000000000000000000000000000000000081525081526020016040518060400160405280600681526020017f79656c6c6f77000000000000000000000000000000000000000000000000000081525081526020016040518060400160405280600481526020017f626c75650000000000000000000000000000000000000000000000000000000081525081526020016040518060400160405280600581526020017f677265656e000000000000000000000000000000000000000000000000000000815250815250600d90600662000662929190620008a3565b503480156200067057600080fd5b506040518060400160405280600981526020017f5371756172654e465400000000000000000000000000000000000000000000008152506040518060400160405280600681526020017f53515541524500000000000000000000000000000000000000000000000000008152508160009080519060200190620006f592919062000812565b5080600190805190602001906200070e92919062000812565b5050506200074060405180606001604052806025815260200162004730602591396200074660201b6200122a1760201c565b62000ac4565b620007e6816040516024016200075d9190620009d8565b6040516020818303038152906040527f41304fac000000000000000000000000000000000000000000000000000000007bffffffffffffffffffffffffffffffffffffffffffffffffffffffff19166020820180517bffffffffffffffffffffffffffffffffffffffffffffffffffffffff8381831617835250505050620007e960201b60201c565b50565b60008151905060006a636f6e736f6c652e6c6f679050602083016000808483855afa5050505050565b828054620008209062000a4e565b90600052602060002090601f01602090048101928262000844576000855562000890565b82601f106200085f57805160ff191683800117855562000890565b8280016001018555821562000890579182015b828111156200088f57825182559160200191906001019062000872565b5b5090506200089f91906200090a565b5090565b828054828255906000526020600020908101928215620008f7579160200282015b82811115620008f6578251829080519060200190620008e592919062000812565b5091602001919060010190620008c4565b5b50905062000906919062000929565b5090565b5b80821115620009255760008160009055506001016200090b565b5090565b5b808211156200094d576000818162000943919062000951565b506001016200092a565b5090565b5080546200095f9062000a4e565b6000825580601f1062000973575062000994565b601f0160209004906000526020600020908101906200099391906200090a565b5b50565b6000620009a482620009fc565b620009b0818562000a07565b9350620009c281856020860162000a18565b620009cd8162000ab3565b840191505092915050565b60006020820190508181036000830152620009f4818462000997565b905092915050565b600081519050919050565b600082825260208201905092915050565b60005b8381101562000a3857808201518184015260208101905062000a1b565b8381111562000a48576000848401525b50505050565b6000600282049050600182168062000a6757607f821691505b6020821081141562000a7e5762000a7d62000a84565b5b50919050565b7f4e487b7100000000000000000000000000000000000000000000000000000000600052602260045260246000fd5b6000601f19601f8301169050919050565b613bd08062000ad46000396000f3fe608060405234801561001057600080fd5b50600436106101165760003560e01c80636352211e116100a2578063b187301f11610071578063b187301f146102f1578063b88d4fde14610321578063c575757a1461033d578063c87b56dd1461036d578063e985e9c51461039d57610116565b80636352211e1461025757806370a082311461028757806395d89b41146102b7578063a22cb465146102d557610116565b80631e5428f4116100e95780631e5428f4146101b557806323b872dd146101bf5780632de38d68146101db57806342842e0e1461020b578063514dc8c61461022757610116565b806301ffc9a71461011b57806306fdde031461014b578063081812fc14610169578063095ea7b314610199575b600080fd5b61013560048036038101906101309190612656565b6103cd565b6040516101429190612dbf565b60405180910390f35b6101536104af565b6040516101609190612dda565b60405180910390f35b610183600480360381019061017e91906126a8565b610541565b6040516101909190612d2f565b60405180910390f35b6101b360048036038101906101ae919061261a565b6105c6565b005b6101bd6106de565b005b6101d960048036038101906101d49190612514565b6108d8565b005b6101f560048036038101906101f091906126a8565b610938565b6040516102029190612dda565b60405180910390f35b61022560048036038101906102209190612514565b610a56565b005b610241600480360381019061023c91906126a8565b610a76565b60405161024e9190612dda565b60405180910390f35b610271600480360381019061026c91906126a8565b610b94565b60405161027e9190612d2f565b60405180910390f35b6102a1600480360381019061029c91906124af565b610c46565b6040516102ae919061303a565b60405180910390f35b6102bf610cfe565b6040516102cc9190612dda565b60405180910390f35b6102ef60048036038101906102ea91906125de565b610d90565b005b61030b600480360381019061030691906126a8565b610da6565b6040516103189190612dda565b60405180910390f35b61033b60048036038101906103369190612563565b610ec4565b005b610357600480360381019061035291906126a8565b610f26565b6040516103649190612dda565b60405180910390f35b610387600480360381019061038291906126a8565b611044565b6040516103949190612dda565b60405180910390f35b6103b760048036038101906103b291906124d8565b611196565b6040516103c49190612dbf565b60405180910390f35b60007f80ac58cd000000000000000000000000000000000000000000000000000000007bffffffffffffffffffffffffffffffffffffffffffffffffffffffff1916827bffffffffffffffffffffffffffffffffffffffffffffffffffffffff1916148061049857507f5b5e139f000000000000000000000000000000000000000000000000000000007bffffffffffffffffffffffffffffffffffffffffffffffffffffffff1916827bffffffffffffffffffffffffffffffffffffffffffffffffffffffff1916145b806104a857506104a7826112c3565b5b9050919050565b6060600080546104be906132ce565b80601f01602080910402602001604051908101604052809291908181526020018280546104ea906132ce565b80156105375780601f1061050c57610100808354040283529160200191610537565b820191906000526020600020905b81548152906001019060200180831161051a57829003601f168201915b5050505050905090565b600061054c8261132d565b61058b576040517f08c379a000000000000000000000000000000000000000000000000000000000815260040161058290612fba565b60405180910390fd5b6004600083815260200190815260200160002060009054906101000a900473ffffffffffffffffffffffffffffffffffffffff169050919050565b60006105d182610b94565b90508073ffffffffffffffffffffffffffffffffffffffff168373ffffffffffffffffffffffffffffffffffffffff161415610642576040517f08c379a000000000000000000000000000000000000000000000000000000000815260040161063990612ffa565b60405180910390fd5b8073ffffffffffffffffffffffffffffffffffffffff16610661611399565b73ffffffffffffffffffffffffffffffffffffffff161480610690575061068f8161068a611399565b611196565b5b6106cf576040517f08c379a00000000000000000000000000000000000000000000000000000000081526004016106c690612efa565b60405180910390fd5b6106d983836113a1565b505050565b60006106ea600761145a565b905060006106f782610938565b9050600061070483610da6565b9050600061071184610f26565b9050600083838360405160200161072a93929190612bc6565b6040516020818303038152906040529050600061074686610a76565b905060006008826009856040516020016107639493929190612bf7565b604051602081830303815290604052905060006107a88461078384611468565b604051602001610794929190612c84565b604051602081830303815290604052611468565b90506000816040516020016107bd9190612ceb565b604051602081830303815290604052905061080c6040518060400160405280601581526020017f0a2d2d2d2d2d2d2d2d2d2d2d2d2d2d2d2d2d2d2d2d000000000000000000000081525061122a565b6108158161122a565b6108536040518060400160405280601581526020017f2d2d2d2d2d2d2d2d2d2d2d2d2d2d2d2d2d2d2d2d0a000000000000000000000081525061122a565b61085d338a611626565b6108678982611644565b61087160076116b8565b610894604051806060016040528060258152602001613b36602591398a336116ce565b7f81761c74e1fc467bcd427e9f1a156b3f1df5675e0a9cccec05a26b5f20d1911d338a6040516108c5929190612d96565b60405180910390a1505050505050505050565b6108e96108e3611399565b8261176d565b610928576040517f08c379a000000000000000000000000000000000000000000000000000000000815260040161091f9061301a565b60405180910390fd5b61093383838361184b565b505050565b6060600061096c61094884611ab2565b6040516020016109589190612cc9565b604051602081830303815290604052611c5f565b9050600a805490508161097f919061337a565b9050600a81815481106109bb577f4e487b7100000000000000000000000000000000000000000000000000000000600052603260045260246000fd5b9060005260206000200180546109d0906132ce565b80601f01602080910402602001604051908101604052809291908181526020018280546109fc906132ce565b8015610a495780601f10610a1e57610100808354040283529160200191610a49565b820191906000526020600020905b815481529060010190602001808311610a2c57829003601f168201915b5050505050915050919050565b610a7183838360405180602001604052806000815250610ec4565b505050565b60606000610aaa610a8684611ab2565b604051602001610a969190612d0d565b604051602081830303815290604052611c5f565b9050600d8054905081610abd919061337a565b9050600d8181548110610af9577f4e487b7100000000000000000000000000000000000000000000000000000000600052603260045260246000fd5b906000526020600020018054610b0e906132ce565b80601f0160208091040260200160405190810160405280929190818152602001828054610b3a906132ce565b8015610b875780601f10610b5c57610100808354040283529160200191610b87565b820191906000526020600020905b815481529060010190602001808311610b6a57829003601f168201915b5050505050915050919050565b6000806002600084815260200190815260200160002060009054906101000a900473ffffffffffffffffffffffffffffffffffffffff169050600073ffffffffffffffffffffffffffffffffffffffff168173ffffffffffffffffffffffffffffffffffffffff161415610c3d576040517f08c379a0000000000000000000000000000000000000000000000000000000008152600401610c3490612f3a565b60405180910390fd5b80915050919050565b60008073ffffffffffffffffffffffffffffffffffffffff168273ffffffffffffffffffffffffffffffffffffffff161415610cb7576040517f08c379a0000000000000000000000000000000000000000000000000000000008152600401610cae90612f1a565b60405180910390fd5b600360008373ffffffffffffffffffffffffffffffffffffffff1673ffffffffffffffffffffffffffffffffffffffff168152602001908152602001600020549050919050565b606060018054610d0d906132ce565b80601f0160208091040260200160405190810160405280929190818152602001828054610d39906132ce565b8015610d865780601f10610d5b57610100808354040283529160200191610d86565b820191906000526020600020905b815481529060010190602001808311610d6957829003601f168201915b5050505050905090565b610da2610d9b611399565b8383611c92565b5050565b60606000610dda610db684611ab2565b604051602001610dc69190612c62565b604051602081830303815290604052611c5f565b9050600b8054905081610ded919061337a565b9050600b8181548110610e29577f4e487b7100000000000000000000000000000000000000000000000000000000600052603260045260246000fd5b906000526020600020018054610e3e906132ce565b80601f0160208091040260200160405190810160405280929190818152602001828054610e6a906132ce565b8015610eb75780601f10610e8c57610100808354040283529160200191610eb7565b820191906000526020600020905b815481529060010190602001808311610e9a57829003601f168201915b5050505050915050919050565b610ed5610ecf611399565b8361176d565b610f14576040517f08c379a0000000000000000000000000000000000000000000000000000000008152600401610f0b9061301a565b60405180910390fd5b610f2084848484611dff565b50505050565b60606000610f5a610f3684611ab2565b604051602001610f469190612c40565b604051602081830303815290604052611c5f565b9050600c8054905081610f6d919061337a565b9050600c8181548110610fa9577f4e487b7100000000000000000000000000000000000000000000000000000000600052603260045260246000fd5b906000526020600020018054610fbe906132ce565b80601f0160208091040260200160405190810160405280929190818152602001828054610fea906132ce565b80156110375780601f1061100c57610100808354040283529160200191611037565b820191906000526020600020905b81548152906001019060200180831161101a57829003601f168201915b5050505050915050919050565b606061104f8261132d565b61108e576040517f08c379a000000000000000000000000000000000000000000000000000000000815260040161108590612f9a565b60405180910390fd5b60006006600084815260200190815260200160002080546110ae906132ce565b80601f01602080910402602001604051908101604052809291908181526020018280546110da906132ce565b80156111275780601f106110fc57610100808354040283529160200191611127565b820191906000526020600020905b81548152906001019060200180831161110a57829003601f168201915b505050505090506000611138611e5b565b905060008151141561114e578192505050611191565b60008251111561118357808260405160200161116b929190612ba2565b60405160208183030381529060405292505050611191565b61118c84611e72565b925050505b919050565b6000600560008473ffffffffffffffffffffffffffffffffffffffff1673ffffffffffffffffffffffffffffffffffffffff16815260200190815260200160002060008373ffffffffffffffffffffffffffffffffffffffff1673ffffffffffffffffffffffffffffffffffffffff16815260200190815260200160002060009054906101000a900460ff16905092915050565b6112c08160405160240161123e9190612dda565b6040516020818303038152906040527f41304fac000000000000000000000000000000000000000000000000000000007bffffffffffffffffffffffffffffffffffffffffffffffffffffffff19166020820180517bffffffffffffffffffffffffffffffffffffffffffffffffffffffff8381831617835250505050611f19565b50565b60007f01ffc9a7000000000000000000000000000000000000000000000000000000007bffffffffffffffffffffffffffffffffffffffffffffffffffffffff1916827bffffffffffffffffffffffffffffffffffffffffffffffffffffffff1916149050919050565b60008073ffffffffffffffffffffffffffffffffffffffff166002600084815260200190815260200160002060009054906101000a900473ffffffffffffffffffffffffffffffffffffffff1673ffffffffffffffffffffffffffffffffffffffff1614159050919050565b600033905090565b816004600083815260200190815260200160002060006101000a81548173ffffffffffffffffffffffffffffffffffffffff021916908373ffffffffffffffffffffffffffffffffffffffff160217905550808273ffffffffffffffffffffffffffffffffffffffff1661141483610b94565b73ffffffffffffffffffffffffffffffffffffffff167f8c5be1e5ebec7d5bd14f71427d1e84f3dd0314c0f7b2291e5b200ac8c7c3b92560405160405180910390a45050565b600081600001549050919050565b606060008251905060008114156114915760405180602001604052806000815250915050611621565b600060036002836114a29190613103565b6114ac9190613159565b60046114b8919061318a565b905060006020826114c99190613103565b67ffffffffffffffff811115611508577f4e487b7100000000000000000000000000000000000000000000000000000000600052604160045260246000fd5b6040519080825280601f01601f19166020018201604052801561153a5781602001600182028036833780820191505090505b5090506000604051806060016040528060408152602001613b5b604091399050600181016020830160005b868110156115de5760038101905062ffffff818a015116603f8160121c168401518060081b905060ff603f83600c1c1686015116810190508060081b905060ff603f8360061c1686015116810190508060081b905060ff603f831686015116810190508060e01b90508084526004840193505050611565565b5060038606600181146115f8576002811461160857611613565b613d3d60f01b6002830352611613565b603d60f81b60018303525b508484525050819450505050505b919050565b611640828260405180602001604052806000815250611f42565b5050565b61164d8261132d565b61168c576040517f08c379a000000000000000000000000000000000000000000000000000000000815260040161168390612f5a565b60405180910390fd5b806006600084815260200190815260200160002090805190602001906116b392919061233b565b505050565b6001816000016000828254019250508190555050565b6117688383836040516024016116e693929190612dfc565b6040516020818303038152906040527fe3849f79000000000000000000000000000000000000000000000000000000007bffffffffffffffffffffffffffffffffffffffffffffffffffffffff19166020820180517bffffffffffffffffffffffffffffffffffffffffffffffffffffffff8381831617835250505050611f19565b505050565b60006117788261132d565b6117b7576040517f08c379a00000000000000000000000000000000000000000000000000000000081526004016117ae90612eda565b60405180910390fd5b60006117c283610b94565b90508073ffffffffffffffffffffffffffffffffffffffff168473ffffffffffffffffffffffffffffffffffffffff16148061180457506118038185611196565b5b8061184257508373ffffffffffffffffffffffffffffffffffffffff1661182a84610541565b73ffffffffffffffffffffffffffffffffffffffff16145b91505092915050565b8273ffffffffffffffffffffffffffffffffffffffff1661186b82610b94565b73ffffffffffffffffffffffffffffffffffffffff16146118c1576040517f08c379a00000000000000000000000000000000000000000000000000000000081526004016118b890612e5a565b60405180910390fd5b600073ffffffffffffffffffffffffffffffffffffffff168273ffffffffffffffffffffffffffffffffffffffff161415611931576040517f08c379a000000000000000000000000000000000000000000000000000000000815260040161192890612e9a565b60405180910390fd5b61193c838383611f9d565b6119476000826113a1565b6001600360008573ffffffffffffffffffffffffffffffffffffffff1673ffffffffffffffffffffffffffffffffffffffff168152602001908152602001600020600082825461199791906131e4565b925050819055506001600360008473ffffffffffffffffffffffffffffffffffffffff1673ffffffffffffffffffffffffffffffffffffffff16815260200190815260200160002060008282546119ee9190613103565b92505081905550816002600083815260200190815260200160002060006101000a81548173ffffffffffffffffffffffffffffffffffffffff021916908373ffffffffffffffffffffffffffffffffffffffff160217905550808273ffffffffffffffffffffffffffffffffffffffff168473ffffffffffffffffffffffffffffffffffffffff167fddf252ad1be2c89b69c2b068fc378daa952ba7f163c4a11628f55a4df523b3ef60405160405180910390a4611aad838383611fa2565b505050565b60606000821415611afa576040518060400160405280600181526020017f30000000000000000000000000000000000000000000000000000000000000008152509050611c5a565b600082905060005b60008214611b2c578080611b1590613331565b915050600a82611b259190613159565b9150611b02565b60008167ffffffffffffffff811115611b6e577f4e487b7100000000000000000000000000000000000000000000000000000000600052604160045260246000fd5b6040519080825280601f01601f191660200182016040528015611ba05781602001600182028036833780820191505090505b5090505b60008514611c5357600182611bb991906131e4565b9150600a85611bc8919061337a565b6030611bd49190613103565b60f81b818381518110611c10577f4e487b7100000000000000000000000000000000000000000000000000000000600052603260045260246000fd5b60200101907effffffffffffffffffffffffffffffffffffffffffffffffffffffffffffff1916908160001a905350600a85611c4c9190613159565b9450611ba4565b8093505050505b919050565b600081604051602001611c729190612b8b565b6040516020818303038152906040528051906020012060001c9050919050565b8173ffffffffffffffffffffffffffffffffffffffff168373ffffffffffffffffffffffffffffffffffffffff161415611d01576040517f08c379a0000000000000000000000000000000000000000000000000000000008152600401611cf890612eba565b60405180910390fd5b80600560008573ffffffffffffffffffffffffffffffffffffffff1673ffffffffffffffffffffffffffffffffffffffff16815260200190815260200160002060008473ffffffffffffffffffffffffffffffffffffffff1673ffffffffffffffffffffffffffffffffffffffff16815260200190815260200160002060006101000a81548160ff0219169083151502179055508173ffffffffffffffffffffffffffffffffffffffff168373ffffffffffffffffffffffffffffffffffffffff167f17307eab39ab6107e8899845ad3d59bd9653f200f220920489ca2b5937696c3183604051611df29190612dbf565b60405180910390a3505050565b611e0a84848461184b565b611e1684848484611fa7565b611e55576040517f08c379a0000000000000000000000000000000000000000000000000000000008152600401611e4c90612e3a565b60405180910390fd5b50505050565b606060405180602001604052806000815250905090565b6060611e7d8261132d565b611ebc576040517f08c379a0000000000000000000000000000000000000000000000000000000008152600401611eb390612fda565b60405180910390fd5b6000611ec6611e5b565b90506000815111611ee65760405180602001604052806000815250611f11565b80611ef084611ab2565b604051602001611f01929190612ba2565b6040516020818303038152906040525b915050919050565b60008151905060006a636f6e736f6c652e6c6f679050602083016000808483855afa5050505050565b611f4c838361213e565b611f596000848484611fa7565b611f98576040517f08c379a0000000000000000000000000000000000000000000000000000000008152600401611f8f90612e3a565b60405180910390fd5b505050565b505050565b505050565b6000611fc88473ffffffffffffffffffffffffffffffffffffffff16612318565b15612131578373ffffffffffffffffffffffffffffffffffffffff1663150b7a02611ff1611399565b8786866040518563ffffffff1660e01b81526004016120139493929190612d4a565b602060405180830381600087803b15801561202d57600080fd5b505af192505050801561205e57506040513d601f19601f8201168201806040525081019061205b919061267f565b60015b6120e1573d806000811461208e576040519150601f19603f3d011682016040523d82523d6000602084013e612093565b606091505b506000815114156120d9576040517f08c379a00000000000000000000000000000000000000000000000000000000081526004016120d090612e3a565b60405180910390fd5b805181602001fd5b63150b7a0260e01b7bffffffffffffffffffffffffffffffffffffffffffffffffffffffff1916817bffffffffffffffffffffffffffffffffffffffffffffffffffffffff191614915050612136565b600190505b949350505050565b600073ffffffffffffffffffffffffffffffffffffffff168273ffffffffffffffffffffffffffffffffffffffff1614156121ae576040517f08c379a00000000000000000000000000000000000000000000000000000000081526004016121a590612f7a565b60405180910390fd5b6121b78161132d565b156121f7576040517f08c379a00000000000000000000000000000000000000000000000000000000081526004016121ee90612e7a565b60405180910390fd5b61220360008383611f9d565b6001600360008473ffffffffffffffffffffffffffffffffffffffff1673ffffffffffffffffffffffffffffffffffffffff16815260200190815260200160002060008282546122539190613103565b92505081905550816002600083815260200190815260200160002060006101000a81548173ffffffffffffffffffffffffffffffffffffffff021916908373ffffffffffffffffffffffffffffffffffffffff160217905550808273ffffffffffffffffffffffffffffffffffffffff16600073ffffffffffffffffffffffffffffffffffffffff167fddf252ad1be2c89b69c2b068fc378daa952ba7f163c4a11628f55a4df523b3ef60405160405180910390a461231460008383611fa2565b5050565b6000808273ffffffffffffffffffffffffffffffffffffffff163b119050919050565b828054612347906132ce565b90600052602060002090601f01602090048101928261236957600085556123b0565b82601f1061238257805160ff19168380011785556123b0565b828001600101855582156123b0579182015b828111156123af578251825591602001919060010190612394565b5b5090506123bd91906123c1565b5090565b5b808211156123da5760008160009055506001016123c2565b5090565b60006123f16123ec8461307a565b613055565b90508281526020810184848401111561240957600080fd5b61241484828561328c565b509392505050565b60008135905061242b81613ad9565b92915050565b60008135905061244081613af0565b92915050565b60008135905061245581613b07565b92915050565b60008151905061246a81613b07565b92915050565b600082601f83011261248157600080fd5b81356124918482602086016123de565b91505092915050565b6000813590506124a981613b1e565b92915050565b6000602082840312156124c157600080fd5b60006124cf8482850161241c565b91505092915050565b600080604083850312156124eb57600080fd5b60006124f98582860161241c565b925050602061250a8582860161241c565b9150509250929050565b60008060006060848603121561252957600080fd5b60006125378682870161241c565b93505060206125488682870161241c565b92505060406125598682870161249a565b9150509250925092565b6000806000806080858703121561257957600080fd5b60006125878782880161241c565b94505060206125988782880161241c565b93505060406125a98782880161249a565b925050606085013567ffffffffffffffff8111156125c657600080fd5b6125d287828801612470565b91505092959194509250565b600080604083850312156125f157600080fd5b60006125ff8582860161241c565b925050602061261085828601612431565b9150509250929050565b6000806040838503121561262d57600080fd5b600061263b8582860161241c565b925050602061264c8582860161249a565b9150509250929050565b60006020828403121561266857600080fd5b600061267684828501612446565b91505092915050565b60006020828403121561269157600080fd5b600061269f8482850161245b565b91505092915050565b6000602082840312156126ba57600080fd5b60006126c88482850161249a565b91505092915050565b6126da81613218565b82525050565b6126e98161322a565b82525050565b60006126fa826130c0565b61270481856130d6565b935061271481856020860161329b565b61271d81613467565b840191505092915050565b6000612733826130cb565b61273d81856130e7565b935061274d81856020860161329b565b61275681613467565b840191505092915050565b600061276c826130cb565b61277681856130f8565b935061278681856020860161329b565b80840191505092915050565b6000815461279f816132ce565b6127a981866130f8565b945060018216600081146127c457600181146127d557612808565b60ff19831686528186019350612808565b6127de856130ab565b60005b83811015612800578154818901526001820191506020810190506127e1565b838801955050505b50505092915050565b600061281e6032836130e7565b915061282982613478565b604082019050919050565b60006128416025836130e7565b915061284c826134c7565b604082019050919050565b6000612864601c836130e7565b915061286f82613516565b602082019050919050565b6000612887600a836130f8565b91506128928261353f565b600a82019050919050565b60006128aa6024836130e7565b91506128b582613568565b604082019050919050565b60006128cd6019836130e7565b91506128d8826135b7565b602082019050919050565b60006128f0600b836130f8565b91506128fb826135e0565b600b82019050919050565b6000612913602c836130e7565b915061291e82613609565b604082019050919050565b6000612936600d836130f8565b915061294182613658565b600d82019050919050565b60006129596038836130e7565b915061296482613681565b604082019050919050565b600061297c602a836130e7565b9150612987826136d0565b604082019050919050565b600061299f6029836130e7565b91506129aa8261371f565b604082019050919050565b60006129c2602e836130e7565b91506129cd8261376e565b604082019050919050565b60006129e56002836130f8565b91506129f0826137bd565b600282019050919050565b6000612a086020836130e7565b9150612a13826137e6565b602082019050919050565b6000612a2b6031836130e7565b9150612a368261380f565b604082019050919050565b6000612a4e602c836130e7565b9150612a598261385e565b604082019050919050565b6000612a71602f836130e7565b9150612a7c826138ad565b604082019050919050565b6000612a94600a836130f8565b9150612a9f826138fc565b600a82019050919050565b6000612ab76021836130e7565b9150612ac282613925565b604082019050919050565b6000612ada600a836130f8565b9150612ae582613974565b600a82019050919050565b6000612afd601d836130f8565b9150612b088261399d565b601d82019050919050565b6000612b206031836130e7565b9150612b2b826139c6565b604082019050919050565b6000612b43606c836130f8565b9150612b4e82613a15565b606c82019050919050565b6000612b666005836130f8565b9150612b7182613ab0565b600582019050919050565b612b8581613282565b82525050565b6000612b978284612761565b915081905092915050565b6000612bae8285612761565b9150612bba8284612761565b91508190509392505050565b6000612bd28286612761565b9150612bde8285612761565b9150612bea8284612761565b9150819050949350505050565b6000612c038287612792565b9150612c0f8286612761565b9150612c1b8285612792565b9150612c278284612761565b9150612c3282612929565b915081905095945050505050565b6000612c4b8261287a565b9150612c578284612761565b915081905092915050565b6000612c6d826128e3565b9150612c798284612761565b915081905092915050565b6000612c8f82612a87565b9150612c9b8285612761565b9150612ca682612b36565b9150612cb28284612761565b9150612cbd826129d8565b91508190509392505050565b6000612cd482612acd565b9150612ce08284612761565b915081905092915050565b6000612cf682612af0565b9150612d028284612761565b915081905092915050565b6000612d1882612b59565b9150612d248284612761565b915081905092915050565b6000602082019050612d4460008301846126d1565b92915050565b6000608082019050612d5f60008301876126d1565b612d6c60208301866126d1565b612d796040830185612b7c565b8181036060830152612d8b81846126ef565b905095945050505050565b6000604082019050612dab60008301856126d1565b612db86020830184612b7c565b9392505050565b6000602082019050612dd460008301846126e0565b92915050565b60006020820190508181036000830152612df48184612728565b905092915050565b60006060820190508181036000830152612e168186612728565b9050612e256020830185612b7c565b612e3260408301846126d1565b949350505050565b60006020820190508181036000830152612e5381612811565b9050919050565b60006020820190508181036000830152612e7381612834565b9050919050565b60006020820190508181036000830152612e9381612857565b9050919050565b60006020820190508181036000830152612eb38161289d565b9050919050565b60006020820190508181036000830152612ed3816128c0565b9050919050565b60006020820190508181036000830152612ef381612906565b9050919050565b60006020820190508181036000830152612f138161294c565b9050919050565b60006020820190508181036000830152612f338161296f565b9050919050565b60006020820190508181036000830152612f5381612992565b9050919050565b60006020820190508181036000830152612f73816129b5565b9050919050565b60006020820190508181036000830152612f93816129fb565b9050919050565b60006020820190508181036000830152612fb381612a1e565b9050919050565b60006020820190508181036000830152612fd381612a41565b9050919050565b60006020820190508181036000830152612ff381612a64565b9050919050565b6000602082019050818103600083015261301381612aaa565b9050919050565b6000602082019050818103600083015261303381612b13565b9050919050565b600060208201905061304f6000830184612b7c565b92915050565b600061305f613070565b905061306b8282613300565b919050565b6000604051905090565b600067ffffffffffffffff82111561309557613094613438565b5b61309e82613467565b9050602081019050919050565b60008190508160005260206000209050919050565b600081519050919050565b600081519050919050565b600082825260208201905092915050565b600082825260208201905092915050565b600081905092915050565b600061310e82613282565b915061311983613282565b9250827fffffffffffffffffffffffffffffffffffffffffffffffffffffffffffffffff0382111561314e5761314d6133ab565b5b828201905092915050565b600061316482613282565b915061316f83613282565b92508261317f5761317e6133da565b5b828204905092915050565b600061319582613282565b91506131a083613282565b9250817fffffffffffffffffffffffffffffffffffffffffffffffffffffffffffffffff04831182151516156131d9576131d86133ab565b5b828202905092915050565b60006131ef82613282565b91506131fa83613282565b92508282101561320d5761320c6133ab565b5b828203905092915050565b600061322382613262565b9050919050565b60008115159050919050565b60007fffffffff0000000000000000000000000000000000000000000000000000000082169050919050565b600073ffffffffffffffffffffffffffffffffffffffff82169050919050565b6000819050919050565b82818337600083830152505050565b60005b838110156132b957808201518184015260208101905061329e565b838111156132c8576000848401525b50505050565b600060028204905060018216806132e657607f821691505b602082108114156132fa576132f9613409565b5b50919050565b61330982613467565b810181811067ffffffffffffffff8211171561332857613327613438565b5b80604052505050565b600061333c82613282565b91507fffffffffffffffffffffffffffffffffffffffffffffffffffffffffffffffff82141561336f5761336e6133ab565b5b600182019050919050565b600061338582613282565b915061339083613282565b9250826133a05761339f6133da565b5b828206905092915050565b7f4e487b7100000000000000000000000000000000000000000000000000000000600052601160045260246000fd5b7f4e487b7100000000000000000000000000000000000000000000000000000000600052601260045260246000fd5b7f4e487b7100000000000000000000000000000000000000000000000000000000600052602260045260246000fd5b7f4e487b7100000000000000000000000000000000000000000000000000000000600052604160045260246000fd5b6000601f19601f8301169050919050565b7f4552433732313a207472616e7366657220746f206e6f6e20455243373231526560008201527f63656976657220696d706c656d656e7465720000000000000000000000000000602082015250565b7f4552433732313a207472616e736665722066726f6d20696e636f72726563742060008201527f6f776e6572000000000000000000000000000000000000000000000000000000602082015250565b7f4552433732313a20746f6b656e20616c7265616479206d696e74656400000000600082015250565b7f54484952445f574f524400000000000000000000000000000000000000000000600082015250565b7f4552433732313a207472616e7366657220746f20746865207a65726f2061646460008201527f7265737300000000000000000000000000000000000000000000000000000000602082015250565b7f4552433732313a20617070726f766520746f2063616c6c657200000000000000600082015250565b7f5345434f4e445f574f5244000000000000000000000000000000000000000000600082015250565b7f4552433732313a206f70657261746f7220717565727920666f72206e6f6e657860008201527f697374656e7420746f6b656e0000000000000000000000000000000000000000602082015250565b7f3c2f746578743e3c2f7376673e00000000000000000000000000000000000000600082015250565b7f4552433732313a20617070726f76652063616c6c6572206973206e6f74206f7760008201527f6e6572206e6f7220617070726f76656420666f7220616c6c0000000000000000602082015250565b7f4552433732313a2062616c616e636520717565727920666f7220746865207a6560008201527f726f206164647265737300000000000000000000000000000000000000000000602082015250565b7f4552433732313a206f776e657220717565727920666f72206e6f6e657869737460008201527f656e7420746f6b656e0000000000000000000000000000000000000000000000602082015250565b7f45524337323155524953746f726167653a2055524920736574206f66206e6f6e60008201527f6578697374656e7420746f6b656e000000000000000000000000000000000000602082015250565b7f227d000000000000000000000000000000000000000000000000000000000000600082015250565b7f4552433732313a206d696e7420746f20746865207a65726f2061646472657373600082015250565b7f45524337323155524953746f726167653a2055524920717565727920666f722060008201527f6e6f6e6578697374656e7420746f6b656e000000000000000000000000000000602082015250565b7f4552433732313a20617070726f76656420717565727920666f72206e6f6e657860008201527f697374656e7420746f6b656e0000000000000000000000000000000000000000602082015250565b7f4552433732314d657461646174613a2055524920717565727920666f72206e6f60008201527f6e6578697374656e7420746f6b656e0000000000000000000000000000000000602082015250565b7f7b226e616d65223a202200000000000000000000000000000000000000000000600082015250565b7f4552433732313a20617070726f76616c20746f2063757272656e74206f776e6560008201527f7200000000000000000000000000000000000000000000000000000000000000602082015250565b7f46495253545f574f524400000000000000000000000000000000000000000000600082015250565b7f646174613a6170706c69636174696f6e2f6a736f6e3b6261736536342c000000600082015250565b7f4552433732313a207472616e736665722063616c6c6572206973206e6f74206f60008201527f776e6572206e6f7220617070726f766564000000000000000000000000000000602082015250565b7f222c20226465736372697074696f6e223a20224120686967686c79206163636c60008201527f61696d656420636f6c6c656374696f6e206f66207370656369616c206368696360208201527f6b656e732e222c2022696d616765223a2022646174613a696d6167652f73766760408201527f2b786d6c3b6261736536342c0000000000000000000000000000000000000000606082015250565b7f434f4c4f52000000000000000000000000000000000000000000000000000000600082015250565b613ae281613218565b8114613aed57600080fd5b50565b613af98161322a565b8114613b0457600080fd5b50565b613b1081613236565b8114613b1b57600080fd5b50565b613b2781613282565b8114613b3257600080fd5b5056fe416e204e465420772f20494420257320686173206265656e206d696e74656420746f2025734142434445464748494a4b4c4d4e4f505152535455565758595a6162636465666768696a6b6c6d6e6f707172737475767778797a303132333435363738392b2fa26469706673582212201a7bf55ad7fd1205943172d926d1a74418fe5cd1b14b0a17233e3d3cc4d0d61764736f6c634300080400333c73766720786d6c6e733d27687474703a2f2f7777772e77332e6f72672f323030302f737667272077696474683d273130302527206865696768743d2731303025272076696577426f783d273020302032323320323233272066696c6c3d276e6f6e65273e3c726563742077696474683d273130302527206865696768743d2731303025272066696c6c3d2754686973206973206d7920636869636b656e204e4654206d696e7420636f6e747261637421272f3e3c7061746820643d274d3131312e3735382032342e333439315633332e36393832483131362e353535483132312e3335325633382e333732385634332e30343734483131362e353535483131312e3735385635372e303731315637312e303934384839372e333635364838322e393733355636362e343230325636312e373435364837332e333738384836332e373834315635372e303731315635322e333936354835342e313839344834342e353934375635372e303731315636312e373435364833392e373937344833355637352e373639335638392e3739334833392e373937344834342e353934375639342e343637365639392e313432324833392e37393734483335563130382e343931563131372e38344833392e373937344834342e35393437563132322e353135563132372e31394834392e333932314835342e31383934563133312e383634563133362e3533394835382e393836384836332e37383431563134312e323133563134352e3838384837332e333738384838322e39373335563135352e323337563136342e3538364838372e373730394839322e35363832563136392e323631563137332e393335483131362e353535483134302e353432563136392e323631563136342e353836483134352e333339483135302e313336563135352e323337563134352e383838483135392e373331483136392e333236563134312e323133563133362e353339483137342e313233483137382e393231563133312e383634563132372e3139483138332e373138483138382e353135563130382e3439315638392e373933483138332e373138483137382e3932315638302e343433395637312e30393438483138332e373138483138382e3531355636362e343230325636312e37343536483138332e373138483137382e3932315635322e333936355634332e30343734483137342e313233483136392e3332365633382e333732385633332e36393832483136342e353239483135392e3733315632392e303233365632342e33343931483135342e393334483135302e3133365631392e363734355631342e39393939483133302e393437483131312e3735385632342e333439315a4d3136392e3332362035322e333936355636312e37343536483137342e313233483137382e3932315636362e343230325637312e30393438483136392e333236483135392e3733315637352e373639335638302e34343339483136342e353239483136392e3332365638352e313138355638392e373933483137342e313233483137382e393231563130382e343931563132372e3139483136392e333236483135392e373331563133312e383634563133362e353339483135302e313336483134302e353432563134312e323133563134352e383838483132362e3135483131312e373538563134312e323133563133362e353339483130362e3936483130322e313633563133312e383634563132372e3139483131312e373538483132312e333532563132322e353135563131372e3834483130322e3136334838322e39373335563131332e313636563130382e3439314838372e373730394839322e35363832563130332e3831375639392e313432324838322e393733354837332e33373838563131332e313636563132372e31394837382e313736324838322e39373335563133312e383634563133362e3533394837382e313736324837332e33373838563133312e383634563132372e31394836332e373834314835342e31383934563131372e3834563130382e3439314834392e333932314834342e35393437563130332e3831375639392e313432324835342e313839344836332e373834315639342e343637365638392e3739334835382e393836384835342e313839345638352e313138355638302e343433394834392e333932314834342e353934375637312e303934385636312e373435364835342e313839344836332e373834315636362e343230325637312e303934384837332e333738384838322e393733355637352e373639335638302e343433394839372e33363536483131312e3735385637352e373639335637312e30393438483131362e353535483132312e3335325635372e303731315634332e30343734483134352e333339483136392e3332365635322e333936355a4d3130322e313633203135302e353632563135352e323337483131312e373538483132312e333532563135392e393132563136342e353836483130362e39364839322e35363832563135352e323337563134352e3838384839372e33363536483130322e313633563135302e3536325a4d3134302e353432203135392e393132563136342e353836483133352e373434483133302e393437563135392e393132563135352e323337483133352e373434483134302e353432563135392e3931325a272066696c6c3d277768697465272f3e3c7061746820643d274d3134302e3534322036362e343230335638302e343434483134352e333339483135302e3133375636362e343230335635322e33393636483134352e333339483134302e3534325636362e343230335a272066696c6c3d277768697465272f3e3c7061746820643d274d3132312e333532203131332e313636563131372e3834483132362e3135483133302e393437563131332e313636563130382e343931483132362e3135483132312e333532563131332e3136365a272066696c6c3d277768697465272f3e3c7374796c653e2e62617365207b2066696c6c3a2077686974653b20666f6e742d7765696768743a203730303b20666f6e742d73697a653a20323470783b207d3c2f7374796c653e3c7465787420783d273530252720793d273930252720636c6173733d27626173652720646f6d696e616e742d626173656c696e653d276d6964646c652720746578742d616e63686f723d276d6964646c65273e",
  "linkReferences": {},
  "deployedLinkReferences": {}
}