{
  "_format": "hh-sol-artifact-1",
  "contractName": "ChickenNFT",
  "sourceName": "contracts/ChickenNFT.sol",
  "abi": [
    {
      "inputs": [],
      "stateMutability": "nonpayable",
      "type": "constructor"
    },
    {
      "anonymous": false,
      "inputs": [
        {
          "indexed": true,
          "internalType": "address",
          "name": "owner",
          "type": "address"
        },
        {
          "indexed": true,
          "internalType": "address",
          "name": "approved",
          "type": "address"
        },
        {
          "indexed": true,
          "internalType": "uint256",
          "name": "tokenId",
          "type": "uint256"
        }
      ],
      "name": "Approval",
      "type": "event"
    },
    {
      "anonymous": false,
      "inputs": [
        {
          "indexed": true,
          "internalType": "address",
          "name": "owner",
          "type": "address"
        },
        {
          "indexed": true,
          "internalType": "address",
          "name": "operator",
          "type": "address"
        },
        {
          "indexed": false,
          "internalType": "bool",
          "name": "approved",
          "type": "bool"
        }
      ],
      "name": "ApprovalForAll",
      "type": "event"
    },
    {
      "anonymous": false,
      "inputs": [
        {
          "indexed": true,
          "internalType": "address",
          "name": "from",
          "type": "address"
        },
        {
          "indexed": true,
          "internalType": "address",
          "name": "to",
          "type": "address"
        },
        {
          "indexed": true,
          "internalType": "uint256",
          "name": "tokenId",
          "type": "uint256"
        }
      ],
      "name": "Transfer",
      "type": "event"
    },
    {
      "inputs": [
        {
          "internalType": "address",
          "name": "to",
          "type": "address"
        },
        {
          "internalType": "uint256",
          "name": "tokenId",
          "type": "uint256"
        }
      ],
      "name": "approve",
      "outputs": [],
      "stateMutability": "nonpayable",
      "type": "function"
    },
    {
      "inputs": [
        {
          "internalType": "address",
          "name": "owner",
          "type": "address"
        }
      ],
      "name": "balanceOf",
      "outputs": [
        {
          "internalType": "uint256",
          "name": "",
          "type": "uint256"
        }
      ],
      "stateMutability": "view",
      "type": "function"
    },
    {
      "inputs": [
        {
          "internalType": "uint256",
          "name": "tokenId",
          "type": "uint256"
        }
      ],
      "name": "getApproved",
      "outputs": [
        {
          "internalType": "address",
          "name": "",
          "type": "address"
        }
      ],
      "stateMutability": "view",
      "type": "function"
    },
    {
      "inputs": [
        {
          "internalType": "address",
          "name": "owner",
          "type": "address"
        },
        {
          "internalType": "address",
          "name": "operator",
          "type": "address"
        }
      ],
      "name": "isApprovedForAll",
      "outputs": [
        {
          "internalType": "bool",
          "name": "",
          "type": "bool"
        }
      ],
      "stateMutability": "view",
      "type": "function"
    },
    {
      "inputs": [],
      "name": "makeAChickenNFT",
      "outputs": [],
      "stateMutability": "nonpayable",
      "type": "function"
    },
    {
      "inputs": [],
      "name": "name",
      "outputs": [
        {
          "internalType": "string",
          "name": "",
          "type": "string"
        }
      ],
      "stateMutability": "view",
      "type": "function"
    },
    {
      "inputs": [
        {
          "internalType": "uint256",
          "name": "tokenId",
          "type": "uint256"
        }
      ],
      "name": "ownerOf",
      "outputs": [
        {
          "internalType": "address",
          "name": "",
          "type": "address"
        }
      ],
      "stateMutability": "view",
      "type": "function"
    },
    {
      "inputs": [
        {
          "internalType": "uint256",
          "name": "tokenId",
          "type": "uint256"
        }
      ],
      "name": "pickRandomFirstWord",
      "outputs": [
        {
          "internalType": "string",
          "name": "",
          "type": "string"
        }
      ],
      "stateMutability": "view",
      "type": "function"
    },
    {
      "inputs": [
        {
          "internalType": "uint256",
          "name": "tokenId",
          "type": "uint256"
        }
      ],
      "name": "pickRandomSecondWord",
      "outputs": [
        {
          "internalType": "string",
          "name": "",
          "type": "string"
        }
      ],
      "stateMutability": "view",
      "type": "function"
    },
    {
      "inputs": [
        {
          "internalType": "uint256",
          "name": "tokenId",
          "type": "uint256"
        }
      ],
      "name": "pickRandomThirdWord",
      "outputs": [
        {
          "internalType": "string",
          "name": "",
          "type": "string"
        }
      ],
      "stateMutability": "view",
      "type": "function"
    },
    {
      "inputs": [
        {
          "internalType": "address",
          "name": "from",
          "type": "address"
        },
        {
          "internalType": "address",
          "name": "to",
          "type": "address"
        },
        {
          "internalType": "uint256",
          "name": "tokenId",
          "type": "uint256"
        }
      ],
      "name": "safeTransferFrom",
      "outputs": [],
      "stateMutability": "nonpayable",
      "type": "function"
    },
    {
      "inputs": [
        {
          "internalType": "address",
          "name": "from",
          "type": "address"
        },
        {
          "internalType": "address",
          "name": "to",
          "type": "address"
        },
        {
          "internalType": "uint256",
          "name": "tokenId",
          "type": "uint256"
        },
        {
          "internalType": "bytes",
          "name": "_data",
          "type": "bytes"
        }
      ],
      "name": "safeTransferFrom",
      "outputs": [],
      "stateMutability": "nonpayable",
      "type": "function"
    },
    {
      "inputs": [
        {
          "internalType": "address",
          "name": "operator",
          "type": "address"
        },
        {
          "internalType": "bool",
          "name": "approved",
          "type": "bool"
        }
      ],
      "name": "setApprovalForAll",
      "outputs": [],
      "stateMutability": "nonpayable",
      "type": "function"
    },
    {
      "inputs": [
        {
          "internalType": "bytes4",
          "name": "interfaceId",
          "type": "bytes4"
        }
      ],
      "name": "supportsInterface",
      "outputs": [
        {
          "internalType": "bool",
          "name": "",
          "type": "bool"
        }
      ],
      "stateMutability": "view",
      "type": "function"
    },
    {
      "inputs": [],
      "name": "symbol",
      "outputs": [
        {
          "internalType": "string",
          "name": "",
          "type": "string"
        }
      ],
      "stateMutability": "view",
      "type": "function"
    },
    {
      "inputs": [
        {
          "internalType": "uint256",
          "name": "tokenId",
          "type": "uint256"
        }
      ],
      "name": "tokenURI",
      "outputs": [
        {
          "internalType": "string",
          "name": "",
          "type": "string"
        }
      ],
      "stateMutability": "view",
      "type": "function"
    },
    {
      "inputs": [
        {
          "internalType": "address",
          "name": "from",
          "type": "address"
        },
        {
          "internalType": "address",
          "name": "to",
          "type": "address"
        },
        {
          "internalType": "uint256",
          "name": "tokenId",
          "type": "uint256"
        }
      ],
      "name": "transferFrom",
      "outputs": [],
      "stateMutability": "nonpayable",
      "type": "function"
    }
  ],
  "bytecode": "0x60806040526040518061094001604052806109048152602001620042c36109049139600890805190602001906200003892919062000662565b506040518060c001604052806040518060400160405280600381526020017f4d7920000000000000000000000000000000000000000000000000000000000081525081526020016040518060400160405280600281526020017f412000000000000000000000000000000000000000000000000000000000000081525081526020016040518060400160405280600581526020017f497427732000000000000000000000000000000000000000000000000000000081525081526020016040518060400160405280600581526020017f536f6d652000000000000000000000000000000000000000000000000000000081525081526020016040518060400160405280600581526020017f4a7573742000000000000000000000000000000000000000000000000000000081525081526020016040518060400160405280600581526020017f596f7572200000000000000000000000000000000000000000000000000000008152508152506009906006620001b6929190620006f3565b506040518060c001604052806040518060400160405280600581526020017f657069632000000000000000000000000000000000000000000000000000000081525081526020016040518060400160405280600581526020017f637574652000000000000000000000000000000000000000000000000000000081525081526020016040518060400160405280600581526020017f726172652000000000000000000000000000000000000000000000000000000081525081526020016040518060400160405280600581526020017f687567652000000000000000000000000000000000000000000000000000000081525081526020016040518060400160405280600581526020017f6e6963652000000000000000000000000000000000000000000000000000000081525081526020016040518060400160405280600781526020017f7072657474792000000000000000000000000000000000000000000000000000815250815250600a90600662000334929190620006f3565b506040518060c001604052806040518060400160405280600481526020017f4e4654210000000000000000000000000000000000000000000000000000000081525081526020016040518060400160405280600881526020017f636869636b656e2100000000000000000000000000000000000000000000000081525081526020016040518060400160405280600581526020017f4a5045472100000000000000000000000000000000000000000000000000000081525081526020016040518060400160405280600681526020017f746f6b656e21000000000000000000000000000000000000000000000000000081525081526020016040518060400160405280600781526020017f706978656c73210000000000000000000000000000000000000000000000000081525081526020016040518060400160405280600681526020017f70686f746f210000000000000000000000000000000000000000000000000000815250815250600b906006620004b2929190620006f3565b50348015620004c057600080fd5b506040518060400160405280600981526020017f5371756172654e465400000000000000000000000000000000000000000000008152506040518060400160405280600681526020017f535155415245000000000000000000000000000000000000000000000000000081525081600090805190602001906200054592919062000662565b5080600190805190602001906200055e92919062000662565b505050620005906040518060600160405280602581526020016200429e602591396200059660201b620010851760201c565b62000914565b6200063681604051602401620005ad919062000828565b6040516020818303038152906040527f41304fac000000000000000000000000000000000000000000000000000000007bffffffffffffffffffffffffffffffffffffffffffffffffffffffff19166020820180517bffffffffffffffffffffffffffffffffffffffffffffffffffffffff83818316178352505050506200063960201b60201c565b50565b60008151905060006a636f6e736f6c652e6c6f679050602083016000808483855afa5050505050565b82805462000670906200089e565b90600052602060002090601f016020900481019282620006945760008555620006e0565b82601f10620006af57805160ff1916838001178555620006e0565b82800160010185558215620006e0579182015b82811115620006df578251825591602001919060010190620006c2565b5b509050620006ef91906200075a565b5090565b82805482825590600052602060002090810192821562000747579160200282015b82811115620007465782518290805190602001906200073592919062000662565b509160200191906001019062000714565b5b50905062000756919062000779565b5090565b5b80821115620007755760008160009055506001016200075b565b5090565b5b808211156200079d5760008181620007939190620007a1565b506001016200077a565b5090565b508054620007af906200089e565b6000825580601f10620007c35750620007e4565b601f016020900490600052602060002090810190620007e391906200075a565b5b50565b6000620007f4826200084c565b62000800818562000857565b93506200081281856020860162000868565b6200081d8162000903565b840191505092915050565b60006020820190508181036000830152620008448184620007e7565b905092915050565b600081519050919050565b600082825260208201905092915050565b60005b83811015620008885780820151818401526020810190506200086b565b8381111562000898576000848401525b50505050565b60006002820490506001821680620008b757607f821691505b60208210811415620008ce57620008cd620008d4565b5b50919050565b7f4e487b7100000000000000000000000000000000000000000000000000000000600052602260045260246000fd5b6000601f19601f8301169050919050565b61397a80620009246000396000f3fe608060405234801561001057600080fd5b506004361061010b5760003560e01c80636352211e116100a2578063b187301f11610071578063b187301f146102b6578063b88d4fde146102e6578063c575757a14610302578063c87b56dd14610332578063e985e9c5146103625761010b565b80636352211e1461021c57806370a082311461024c57806395d89b411461027c578063a22cb4651461029a5761010b565b80631e5428f4116100de5780631e5428f4146101aa57806323b872dd146101b45780632de38d68146101d057806342842e0e146102005761010b565b806301ffc9a71461011057806306fdde0314610140578063081812fc1461015e578063095ea7b31461018e575b600080fd5b61012a600480360381019061012591906124b1565b610392565b6040516101379190612b92565b60405180910390f35b610148610474565b6040516101559190612bad565b60405180910390f35b61017860048036038101906101739190612503565b610506565b6040516101859190612b2b565b60405180910390f35b6101a860048036038101906101a39190612475565b61058b565b005b6101b26106a3565b005b6101ce60048036038101906101c9919061236f565b610851565b005b6101ea60048036038101906101e59190612503565b6108b1565b6040516101f79190612bad565b60405180910390f35b61021a6004803603810190610215919061236f565b6109cf565b005b61023660048036038101906102319190612503565b6109ef565b6040516102439190612b2b565b60405180910390f35b6102666004803603810190610261919061230a565b610aa1565b6040516102739190612e0d565b60405180910390f35b610284610b59565b6040516102919190612bad565b60405180910390f35b6102b460048036038101906102af9190612439565b610beb565b005b6102d060048036038101906102cb9190612503565b610c01565b6040516102dd9190612bad565b60405180910390f35b61030060048036038101906102fb91906123be565b610d1f565b005b61031c60048036038101906103179190612503565b610d81565b6040516103299190612bad565b60405180910390f35b61034c60048036038101906103479190612503565b610e9f565b6040516103599190612bad565b60405180910390f35b61037c60048036038101906103779190612333565b610ff1565b6040516103899190612b92565b60405180910390f35b60007f80ac58cd000000000000000000000000000000000000000000000000000000007bffffffffffffffffffffffffffffffffffffffffffffffffffffffff1916827bffffffffffffffffffffffffffffffffffffffffffffffffffffffff1916148061045d57507f5b5e139f000000000000000000000000000000000000000000000000000000007bffffffffffffffffffffffffffffffffffffffffffffffffffffffff1916827bffffffffffffffffffffffffffffffffffffffffffffffffffffffff1916145b8061046d575061046c8261111e565b5b9050919050565b606060008054610483906130a1565b80601f01602080910402602001604051908101604052809291908181526020018280546104af906130a1565b80156104fc5780601f106104d1576101008083540402835291602001916104fc565b820191906000526020600020905b8154815290600101906020018083116104df57829003601f168201915b5050505050905090565b600061051182611188565b610550576040517f08c379a000000000000000000000000000000000000000000000000000000000815260040161054790612d8d565b60405180910390fd5b6004600083815260200190815260200160002060009054906101000a900473ffffffffffffffffffffffffffffffffffffffff169050919050565b6000610596826109ef565b90508073ffffffffffffffffffffffffffffffffffffffff168373ffffffffffffffffffffffffffffffffffffffff161415610607576040517f08c379a00000000000000000000000000000000000000000000000000000000081526004016105fe90612dcd565b60405180910390fd5b8073ffffffffffffffffffffffffffffffffffffffff166106266111f4565b73ffffffffffffffffffffffffffffffffffffffff16148061065557506106548161064f6111f4565b610ff1565b5b610694576040517f08c379a000000000000000000000000000000000000000000000000000000000815260040161068b90612ccd565b60405180910390fd5b61069e83836111fc565b505050565b60006106af60076112b5565b905060006106bc826108b1565b905060006106c983610c01565b905060006106d684610d81565b905060008383836040516020016106ef939291906129fe565b60405160208183030381529060405290506000600882604051602001610716929190612a2f565b6040516020818303038152906040529050600061075b83610736846112c3565b604051602001610747929190612aa2565b6040516020818303038152906040526112c3565b90506000816040516020016107709190612b09565b60405160208183030381529060405290506107bf6040518060400160405280601581526020017f0a2d2d2d2d2d2d2d2d2d2d2d2d2d2d2d2d2d2d2d2d0000000000000000000000815250611085565b6107c881611085565b6108066040518060400160405280601581526020017f2d2d2d2d2d2d2d2d2d2d2d2d2d2d2d2d2d2d2d2d0a0000000000000000000000815250611085565b6108103389611481565b61081a888261149f565b6108246007611513565b6108476040518060600160405280602581526020016138e0602591398933611529565b5050505050505050565b61086261085c6111f4565b826115c8565b6108a1576040517f08c379a000000000000000000000000000000000000000000000000000000000815260040161089890612ded565b60405180910390fd5b6108ac8383836116a6565b505050565b606060006108e56108c18461190d565b6040516020016108d19190612ae7565b604051602081830303815290604052611aba565b9050600980549050816108f8919061314d565b905060098181548110610934577f4e487b7100000000000000000000000000000000000000000000000000000000600052603260045260246000fd5b906000526020600020018054610949906130a1565b80601f0160208091040260200160405190810160405280929190818152602001828054610975906130a1565b80156109c25780601f10610997576101008083540402835291602001916109c2565b820191906000526020600020905b8154815290600101906020018083116109a557829003601f168201915b5050505050915050919050565b6109ea83838360405180602001604052806000815250610d1f565b505050565b6000806002600084815260200190815260200160002060009054906101000a900473ffffffffffffffffffffffffffffffffffffffff169050600073ffffffffffffffffffffffffffffffffffffffff168173ffffffffffffffffffffffffffffffffffffffff161415610a98576040517f08c379a0000000000000000000000000000000000000000000000000000000008152600401610a8f90612d0d565b60405180910390fd5b80915050919050565b60008073ffffffffffffffffffffffffffffffffffffffff168273ffffffffffffffffffffffffffffffffffffffff161415610b12576040517f08c379a0000000000000000000000000000000000000000000000000000000008152600401610b0990612ced565b60405180910390fd5b600360008373ffffffffffffffffffffffffffffffffffffffff1673ffffffffffffffffffffffffffffffffffffffff168152602001908152602001600020549050919050565b606060018054610b68906130a1565b80601f0160208091040260200160405190810160405280929190818152602001828054610b94906130a1565b8015610be15780601f10610bb657610100808354040283529160200191610be1565b820191906000526020600020905b815481529060010190602001808311610bc457829003601f168201915b5050505050905090565b610bfd610bf66111f4565b8383611aed565b5050565b60606000610c35610c118461190d565b604051602001610c219190612a80565b604051602081830303815290604052611aba565b9050600a8054905081610c48919061314d565b9050600a8181548110610c84577f4e487b7100000000000000000000000000000000000000000000000000000000600052603260045260246000fd5b906000526020600020018054610c99906130a1565b80601f0160208091040260200160405190810160405280929190818152602001828054610cc5906130a1565b8015610d125780601f10610ce757610100808354040283529160200191610d12565b820191906000526020600020905b815481529060010190602001808311610cf557829003601f168201915b5050505050915050919050565b610d30610d2a6111f4565b836115c8565b610d6f576040517f08c379a0000000000000000000000000000000000000000000000000000000008152600401610d6690612ded565b60405180910390fd5b610d7b84848484611c5a565b50505050565b60606000610db5610d918461190d565b604051602001610da19190612a5e565b604051602081830303815290604052611aba565b9050600b8054905081610dc8919061314d565b9050600b8181548110610e04577f4e487b7100000000000000000000000000000000000000000000000000000000600052603260045260246000fd5b906000526020600020018054610e19906130a1565b80601f0160208091040260200160405190810160405280929190818152602001828054610e45906130a1565b8015610e925780601f10610e6757610100808354040283529160200191610e92565b820191906000526020600020905b815481529060010190602001808311610e7557829003601f168201915b5050505050915050919050565b6060610eaa82611188565b610ee9576040517f08c379a0000000000000000000000000000000000000000000000000000000008152600401610ee090612d6d565b60405180910390fd5b6000600660008481526020019081526020016000208054610f09906130a1565b80601f0160208091040260200160405190810160405280929190818152602001828054610f35906130a1565b8015610f825780601f10610f5757610100808354040283529160200191610f82565b820191906000526020600020905b815481529060010190602001808311610f6557829003601f168201915b505050505090506000610f93611cb6565b9050600081511415610fa9578192505050610fec565b600082511115610fde578082604051602001610fc69291906129da565b60405160208183030381529060405292505050610fec565b610fe784611ccd565b925050505b919050565b6000600560008473ffffffffffffffffffffffffffffffffffffffff1673ffffffffffffffffffffffffffffffffffffffff16815260200190815260200160002060008373ffffffffffffffffffffffffffffffffffffffff1673ffffffffffffffffffffffffffffffffffffffff16815260200190815260200160002060009054906101000a900460ff16905092915050565b61111b816040516024016110999190612bad565b6040516020818303038152906040527f41304fac000000000000000000000000000000000000000000000000000000007bffffffffffffffffffffffffffffffffffffffffffffffffffffffff19166020820180517bffffffffffffffffffffffffffffffffffffffffffffffffffffffff8381831617835250505050611d74565b50565b60007f01ffc9a7000000000000000000000000000000000000000000000000000000007bffffffffffffffffffffffffffffffffffffffffffffffffffffffff1916827bffffffffffffffffffffffffffffffffffffffffffffffffffffffff1916149050919050565b60008073ffffffffffffffffffffffffffffffffffffffff166002600084815260200190815260200160002060009054906101000a900473ffffffffffffffffffffffffffffffffffffffff1673ffffffffffffffffffffffffffffffffffffffff1614159050919050565b600033905090565b816004600083815260200190815260200160002060006101000a81548173ffffffffffffffffffffffffffffffffffffffff021916908373ffffffffffffffffffffffffffffffffffffffff160217905550808273ffffffffffffffffffffffffffffffffffffffff1661126f836109ef565b73ffffffffffffffffffffffffffffffffffffffff167f8c5be1e5ebec7d5bd14f71427d1e84f3dd0314c0f7b2291e5b200ac8c7c3b92560405160405180910390a45050565b600081600001549050919050565b606060008251905060008114156112ec576040518060200160405280600081525091505061147c565b600060036002836112fd9190612ed6565b6113079190612f2c565b60046113139190612f5d565b905060006020826113249190612ed6565b67ffffffffffffffff811115611363577f4e487b7100000000000000000000000000000000000000000000000000000000600052604160045260246000fd5b6040519080825280601f01601f1916602001820160405280156113955781602001600182028036833780820191505090505b5090506000604051806060016040528060408152602001613905604091399050600181016020830160005b868110156114395760038101905062ffffff818a015116603f8160121c168401518060081b905060ff603f83600c1c1686015116810190508060081b905060ff603f8360061c1686015116810190508060081b905060ff603f831686015116810190508060e01b905080845260048401935050506113c0565b50600386066001811461145357600281146114635761146e565b613d3d60f01b600283035261146e565b603d60f81b60018303525b508484525050819450505050505b919050565b61149b828260405180602001604052806000815250611d9d565b5050565b6114a882611188565b6114e7576040517f08c379a00000000000000000000000000000000000000000000000000000000081526004016114de90612d2d565b60405180910390fd5b8060066000848152602001908152602001600020908051906020019061150e929190612196565b505050565b6001816000016000828254019250508190555050565b6115c383838360405160240161154193929190612bcf565b6040516020818303038152906040527fe3849f79000000000000000000000000000000000000000000000000000000007bffffffffffffffffffffffffffffffffffffffffffffffffffffffff19166020820180517bffffffffffffffffffffffffffffffffffffffffffffffffffffffff8381831617835250505050611d74565b505050565b60006115d382611188565b611612576040517f08c379a000000000000000000000000000000000000000000000000000000000815260040161160990612cad565b60405180910390fd5b600061161d836109ef565b90508073ffffffffffffffffffffffffffffffffffffffff168473ffffffffffffffffffffffffffffffffffffffff16148061165f575061165e8185610ff1565b5b8061169d57508373ffffffffffffffffffffffffffffffffffffffff1661168584610506565b73ffffffffffffffffffffffffffffffffffffffff16145b91505092915050565b8273ffffffffffffffffffffffffffffffffffffffff166116c6826109ef565b73ffffffffffffffffffffffffffffffffffffffff161461171c576040517f08c379a000000000000000000000000000000000000000000000000000000000815260040161171390612c2d565b60405180910390fd5b600073ffffffffffffffffffffffffffffffffffffffff168273ffffffffffffffffffffffffffffffffffffffff16141561178c576040517f08c379a000000000000000000000000000000000000000000000000000000000815260040161178390612c6d565b60405180910390fd5b611797838383611df8565b6117a26000826111fc565b6001600360008573ffffffffffffffffffffffffffffffffffffffff1673ffffffffffffffffffffffffffffffffffffffff16815260200190815260200160002060008282546117f29190612fb7565b925050819055506001600360008473ffffffffffffffffffffffffffffffffffffffff1673ffffffffffffffffffffffffffffffffffffffff16815260200190815260200160002060008282546118499190612ed6565b92505081905550816002600083815260200190815260200160002060006101000a81548173ffffffffffffffffffffffffffffffffffffffff021916908373ffffffffffffffffffffffffffffffffffffffff160217905550808273ffffffffffffffffffffffffffffffffffffffff168473ffffffffffffffffffffffffffffffffffffffff167fddf252ad1be2c89b69c2b068fc378daa952ba7f163c4a11628f55a4df523b3ef60405160405180910390a4611908838383611dfd565b505050565b60606000821415611955576040518060400160405280600181526020017f30000000000000000000000000000000000000000000000000000000000000008152509050611ab5565b600082905060005b6000821461198757808061197090613104565b915050600a826119809190612f2c565b915061195d565b60008167ffffffffffffffff8111156119c9577f4e487b7100000000000000000000000000000000000000000000000000000000600052604160045260246000fd5b6040519080825280601f01601f1916602001820160405280156119fb5781602001600182028036833780820191505090505b5090505b60008514611aae57600182611a149190612fb7565b9150600a85611a23919061314d565b6030611a2f9190612ed6565b60f81b818381518110611a6b577f4e487b7100000000000000000000000000000000000000000000000000000000600052603260045260246000fd5b60200101907effffffffffffffffffffffffffffffffffffffffffffffffffffffffffffff1916908160001a905350600a85611aa79190612f2c565b94506119ff565b8093505050505b919050565b600081604051602001611acd91906129c3565b6040516020818303038152906040528051906020012060001c9050919050565b8173ffffffffffffffffffffffffffffffffffffffff168373ffffffffffffffffffffffffffffffffffffffff161415611b5c576040517f08c379a0000000000000000000000000000000000000000000000000000000008152600401611b5390612c8d565b60405180910390fd5b80600560008573ffffffffffffffffffffffffffffffffffffffff1673ffffffffffffffffffffffffffffffffffffffff16815260200190815260200160002060008473ffffffffffffffffffffffffffffffffffffffff1673ffffffffffffffffffffffffffffffffffffffff16815260200190815260200160002060006101000a81548160ff0219169083151502179055508173ffffffffffffffffffffffffffffffffffffffff168373ffffffffffffffffffffffffffffffffffffffff167f17307eab39ab6107e8899845ad3d59bd9653f200f220920489ca2b5937696c3183604051611c4d9190612b92565b60405180910390a3505050565b611c658484846116a6565b611c7184848484611e02565b611cb0576040517f08c379a0000000000000000000000000000000000000000000000000000000008152600401611ca790612c0d565b60405180910390fd5b50505050565b606060405180602001604052806000815250905090565b6060611cd882611188565b611d17576040517f08c379a0000000000000000000000000000000000000000000000000000000008152600401611d0e90612dad565b60405180910390fd5b6000611d21611cb6565b90506000815111611d415760405180602001604052806000815250611d6c565b80611d4b8461190d565b604051602001611d5c9291906129da565b6040516020818303038152906040525b915050919050565b60008151905060006a636f6e736f6c652e6c6f679050602083016000808483855afa5050505050565b611da78383611f99565b611db46000848484611e02565b611df3576040517f08c379a0000000000000000000000000000000000000000000000000000000008152600401611dea90612c0d565b60405180910390fd5b505050565b505050565b505050565b6000611e238473ffffffffffffffffffffffffffffffffffffffff16612173565b15611f8c578373ffffffffffffffffffffffffffffffffffffffff1663150b7a02611e4c6111f4565b8786866040518563ffffffff1660e01b8152600401611e6e9493929190612b46565b602060405180830381600087803b158015611e8857600080fd5b505af1925050508015611eb957506040513d601f19601f82011682018060405250810190611eb691906124da565b60015b611f3c573d8060008114611ee9576040519150601f19603f3d011682016040523d82523d6000602084013e611eee565b606091505b50600081511415611f34576040517f08c379a0000000000000000000000000000000000000000000000000000000008152600401611f2b90612c0d565b60405180910390fd5b805181602001fd5b63150b7a0260e01b7bffffffffffffffffffffffffffffffffffffffffffffffffffffffff1916817bffffffffffffffffffffffffffffffffffffffffffffffffffffffff191614915050611f91565b600190505b949350505050565b600073ffffffffffffffffffffffffffffffffffffffff168273ffffffffffffffffffffffffffffffffffffffff161415612009576040517f08c379a000000000000000000000000000000000000000000000000000000000815260040161200090612d4d565b60405180910390fd5b61201281611188565b15612052576040517f08c379a000000000000000000000000000000000000000000000000000000000815260040161204990612c4d565b60405180910390fd5b61205e60008383611df8565b6001600360008473ffffffffffffffffffffffffffffffffffffffff1673ffffffffffffffffffffffffffffffffffffffff16815260200190815260200160002060008282546120ae9190612ed6565b92505081905550816002600083815260200190815260200160002060006101000a81548173ffffffffffffffffffffffffffffffffffffffff021916908373ffffffffffffffffffffffffffffffffffffffff160217905550808273ffffffffffffffffffffffffffffffffffffffff16600073ffffffffffffffffffffffffffffffffffffffff167fddf252ad1be2c89b69c2b068fc378daa952ba7f163c4a11628f55a4df523b3ef60405160405180910390a461216f60008383611dfd565b5050565b6000808273ffffffffffffffffffffffffffffffffffffffff163b119050919050565b8280546121a2906130a1565b90600052602060002090601f0160209004810192826121c4576000855561220b565b82601f106121dd57805160ff191683800117855561220b565b8280016001018555821561220b579182015b8281111561220a5782518255916020019190600101906121ef565b5b509050612218919061221c565b5090565b5b8082111561223557600081600090555060010161221d565b5090565b600061224c61224784612e4d565b612e28565b90508281526020810184848401111561226457600080fd5b61226f84828561305f565b509392505050565b60008135905061228681613883565b92915050565b60008135905061229b8161389a565b92915050565b6000813590506122b0816138b1565b92915050565b6000815190506122c5816138b1565b92915050565b600082601f8301126122dc57600080fd5b81356122ec848260208601612239565b91505092915050565b600081359050612304816138c8565b92915050565b60006020828403121561231c57600080fd5b600061232a84828501612277565b91505092915050565b6000806040838503121561234657600080fd5b600061235485828601612277565b925050602061236585828601612277565b9150509250929050565b60008060006060848603121561238457600080fd5b600061239286828701612277565b93505060206123a386828701612277565b92505060406123b4868287016122f5565b9150509250925092565b600080600080608085870312156123d457600080fd5b60006123e287828801612277565b94505060206123f387828801612277565b9350506040612404878288016122f5565b925050606085013567ffffffffffffffff81111561242157600080fd5b61242d878288016122cb565b91505092959194509250565b6000806040838503121561244c57600080fd5b600061245a85828601612277565b925050602061246b8582860161228c565b9150509250929050565b6000806040838503121561248857600080fd5b600061249685828601612277565b92505060206124a7858286016122f5565b9150509250929050565b6000602082840312156124c357600080fd5b60006124d1848285016122a1565b91505092915050565b6000602082840312156124ec57600080fd5b60006124fa848285016122b6565b91505092915050565b60006020828403121561251557600080fd5b6000612523848285016122f5565b91505092915050565b61253581612feb565b82525050565b61254481612ffd565b82525050565b600061255582612e93565b61255f8185612ea9565b935061256f81856020860161306e565b6125788161323a565b840191505092915050565b600061258e82612e9e565b6125988185612eba565b93506125a881856020860161306e565b6125b18161323a565b840191505092915050565b60006125c782612e9e565b6125d18185612ecb565b93506125e181856020860161306e565b80840191505092915050565b600081546125fa816130a1565b6126048186612ecb565b9450600182166000811461261f576001811461263057612663565b60ff19831686528186019350612663565b61263985612e7e565b60005b8381101561265b5781548189015260018201915060208101905061263c565b838801955050505b50505092915050565b6000612679603283612eba565b91506126848261324b565b604082019050919050565b600061269c602583612eba565b91506126a78261329a565b604082019050919050565b60006126bf601c83612eba565b91506126ca826132e9565b602082019050919050565b60006126e2600a83612ecb565b91506126ed82613312565b600a82019050919050565b6000612705602483612eba565b91506127108261333b565b604082019050919050565b6000612728601983612eba565b91506127338261338a565b602082019050919050565b600061274b600b83612ecb565b9150612756826133b3565b600b82019050919050565b600061276e602c83612eba565b9150612779826133dc565b604082019050919050565b6000612791600d83612ecb565b915061279c8261342b565b600d82019050919050565b60006127b4603883612eba565b91506127bf82613454565b604082019050919050565b60006127d7602a83612eba565b91506127e2826134a3565b604082019050919050565b60006127fa602983612eba565b9150612805826134f2565b604082019050919050565b600061281d602e83612eba565b915061282882613541565b604082019050919050565b6000612840600283612ecb565b915061284b82613590565b600282019050919050565b6000612863602083612eba565b915061286e826135b9565b602082019050919050565b6000612886603183612eba565b9150612891826135e2565b604082019050919050565b60006128a9602c83612eba565b91506128b482613631565b604082019050919050565b60006128cc602f83612eba565b91506128d782613680565b604082019050919050565b60006128ef600a83612ecb565b91506128fa826136cf565b600a82019050919050565b6000612912602183612eba565b915061291d826136f8565b604082019050919050565b6000612935600a83612ecb565b915061294082613747565b600a82019050919050565b6000612958601d83612ecb565b915061296382613770565b601d82019050919050565b600061297b603183612eba565b915061298682613799565b604082019050919050565b600061299e606c83612ecb565b91506129a9826137e8565b606c82019050919050565b6129bd81613055565b82525050565b60006129cf82846125bc565b915081905092915050565b60006129e682856125bc565b91506129f282846125bc565b91508190509392505050565b6000612a0a82866125bc565b9150612a1682856125bc565b9150612a2282846125bc565b9150819050949350505050565b6000612a3b82856125ed565b9150612a4782846125bc565b9150612a5282612784565b91508190509392505050565b6000612a69826126d5565b9150612a7582846125bc565b915081905092915050565b6000612a8b8261273e565b9150612a9782846125bc565b915081905092915050565b6000612aad826128e2565b9150612ab982856125bc565b9150612ac482612991565b9150612ad082846125bc565b9150612adb82612833565b91508190509392505050565b6000612af282612928565b9150612afe82846125bc565b915081905092915050565b6000612b148261294b565b9150612b2082846125bc565b915081905092915050565b6000602082019050612b40600083018461252c565b92915050565b6000608082019050612b5b600083018761252c565b612b68602083018661252c565b612b7560408301856129b4565b8181036060830152612b87818461254a565b905095945050505050565b6000602082019050612ba7600083018461253b565b92915050565b60006020820190508181036000830152612bc78184612583565b905092915050565b60006060820190508181036000830152612be98186612583565b9050612bf860208301856129b4565b612c05604083018461252c565b949350505050565b60006020820190508181036000830152612c268161266c565b9050919050565b60006020820190508181036000830152612c468161268f565b9050919050565b60006020820190508181036000830152612c66816126b2565b9050919050565b60006020820190508181036000830152612c86816126f8565b9050919050565b60006020820190508181036000830152612ca68161271b565b9050919050565b60006020820190508181036000830152612cc681612761565b9050919050565b60006020820190508181036000830152612ce6816127a7565b9050919050565b60006020820190508181036000830152612d06816127ca565b9050919050565b60006020820190508181036000830152612d26816127ed565b9050919050565b60006020820190508181036000830152612d4681612810565b9050919050565b60006020820190508181036000830152612d6681612856565b9050919050565b60006020820190508181036000830152612d8681612879565b9050919050565b60006020820190508181036000830152612da68161289c565b9050919050565b60006020820190508181036000830152612dc6816128bf565b9050919050565b60006020820190508181036000830152612de681612905565b9050919050565b60006020820190508181036000830152612e068161296e565b9050919050565b6000602082019050612e2260008301846129b4565b92915050565b6000612e32612e43565b9050612e3e82826130d3565b919050565b6000604051905090565b600067ffffffffffffffff821115612e6857612e6761320b565b5b612e718261323a565b9050602081019050919050565b60008190508160005260206000209050919050565b600081519050919050565b600081519050919050565b600082825260208201905092915050565b600082825260208201905092915050565b600081905092915050565b6000612ee182613055565b9150612eec83613055565b9250827fffffffffffffffffffffffffffffffffffffffffffffffffffffffffffffffff03821115612f2157612f2061317e565b5b828201905092915050565b6000612f3782613055565b9150612f4283613055565b925082612f5257612f516131ad565b5b828204905092915050565b6000612f6882613055565b9150612f7383613055565b9250817fffffffffffffffffffffffffffffffffffffffffffffffffffffffffffffffff0483118215151615612fac57612fab61317e565b5b828202905092915050565b6000612fc282613055565b9150612fcd83613055565b925082821015612fe057612fdf61317e565b5b828203905092915050565b6000612ff682613035565b9050919050565b60008115159050919050565b60007fffffffff0000000000000000000000000000000000000000000000000000000082169050919050565b600073ffffffffffffffffffffffffffffffffffffffff82169050919050565b6000819050919050565b82818337600083830152505050565b60005b8381101561308c578082015181840152602081019050613071565b8381111561309b576000848401525b50505050565b600060028204905060018216806130b957607f821691505b602082108114156130cd576130cc6131dc565b5b50919050565b6130dc8261323a565b810181811067ffffffffffffffff821117156130fb576130fa61320b565b5b80604052505050565b600061310f82613055565b91507fffffffffffffffffffffffffffffffffffffffffffffffffffffffffffffffff8214156131425761314161317e565b5b600182019050919050565b600061315882613055565b915061316383613055565b925082613173576131726131ad565b5b828206905092915050565b7f4e487b7100000000000000000000000000000000000000000000000000000000600052601160045260246000fd5b7f4e487b7100000000000000000000000000000000000000000000000000000000600052601260045260246000fd5b7f4e487b7100000000000000000000000000000000000000000000000000000000600052602260045260246000fd5b7f4e487b7100000000000000000000000000000000000000000000000000000000600052604160045260246000fd5b6000601f19601f8301169050919050565b7f4552433732313a207472616e7366657220746f206e6f6e20455243373231526560008201527f63656976657220696d706c656d656e7465720000000000000000000000000000602082015250565b7f4552433732313a207472616e736665722066726f6d20696e636f72726563742060008201527f6f776e6572000000000000000000000000000000000000000000000000000000602082015250565b7f4552433732313a20746f6b656e20616c7265616479206d696e74656400000000600082015250565b7f54484952445f574f524400000000000000000000000000000000000000000000600082015250565b7f4552433732313a207472616e7366657220746f20746865207a65726f2061646460008201527f7265737300000000000000000000000000000000000000000000000000000000602082015250565b7f4552433732313a20617070726f766520746f2063616c6c657200000000000000600082015250565b7f5345434f4e445f574f5244000000000000000000000000000000000000000000600082015250565b7f4552433732313a206f70657261746f7220717565727920666f72206e6f6e657860008201527f697374656e7420746f6b656e0000000000000000000000000000000000000000602082015250565b7f3c2f746578743e3c2f7376673e00000000000000000000000000000000000000600082015250565b7f4552433732313a20617070726f76652063616c6c6572206973206e6f74206f7760008201527f6e6572206e6f7220617070726f76656420666f7220616c6c0000000000000000602082015250565b7f4552433732313a2062616c616e636520717565727920666f7220746865207a6560008201527f726f206164647265737300000000000000000000000000000000000000000000602082015250565b7f4552433732313a206f776e657220717565727920666f72206e6f6e657869737460008201527f656e7420746f6b656e0000000000000000000000000000000000000000000000602082015250565b7f45524337323155524953746f726167653a2055524920736574206f66206e6f6e60008201527f6578697374656e7420746f6b656e000000000000000000000000000000000000602082015250565b7f227d000000000000000000000000000000000000000000000000000000000000600082015250565b7f4552433732313a206d696e7420746f20746865207a65726f2061646472657373600082015250565b7f45524337323155524953746f726167653a2055524920717565727920666f722060008201527f6e6f6e6578697374656e7420746f6b656e000000000000000000000000000000602082015250565b7f4552433732313a20617070726f76656420717565727920666f72206e6f6e657860008201527f697374656e7420746f6b656e0000000000000000000000000000000000000000602082015250565b7f4552433732314d657461646174613a2055524920717565727920666f72206e6f60008201527f6e6578697374656e7420746f6b656e0000000000000000000000000000000000602082015250565b7f7b226e616d65223a202200000000000000000000000000000000000000000000600082015250565b7f4552433732313a20617070726f76616c20746f2063757272656e74206f776e6560008201527f7200000000000000000000000000000000000000000000000000000000000000602082015250565b7f46495253545f574f524400000000000000000000000000000000000000000000600082015250565b7f646174613a6170706c69636174696f6e2f6a736f6e3b6261736536342c000000600082015250565b7f4552433732313a207472616e736665722063616c6c6572206973206e6f74206f60008201527f776e6572206e6f7220617070726f766564000000000000000000000000000000602082015250565b7f222c20226465736372697074696f6e223a20224120686967686c79206163636c60008201527f61696d656420636f6c6c656374696f6e206f66207370656369616c206368696360208201527f6b656e732e222c2022696d616765223a2022646174613a696d6167652f73766760408201527f2b786d6c3b6261736536342c0000000000000000000000000000000000000000606082015250565b61388c81612feb565b811461389757600080fd5b50565b6138a381612ffd565b81146138ae57600080fd5b50565b6138ba81613009565b81146138c557600080fd5b50565b6138d181613055565b81146138dc57600080fd5b5056fe416e204e465420772f20494420257320686173206265656e206d696e74656420746f2025734142434445464748494a4b4c4d4e4f505152535455565758595a6162636465666768696a6b6c6d6e6f707172737475767778797a303132333435363738392b2fa26469706673582212209b7ac3ecade46ab967dc1b27930fd475228f5b316b9b0239a0bd84620c2500f964736f6c6343000804003354686973206973206d7920636869636b656e204e4654206d696e7420636f6e7472616374213c73766720786d6c6e733d27687474703a2f2f7777772e77332e6f72672f323030302f737667272077696474683d273130302527206865696768743d2731303025272076696577426f783d273020302032323320323233272066696c6c3d276e6f6e65273e3c726563742077696474683d273130302527206865696768743d2731303025272066696c6c3d2723313531353135272f3e3c7061746820643d274d3131312e3735382032342e333439315633332e36393832483131362e353535483132312e3335325633382e333732385634332e30343734483131362e353535483131312e3735385635372e303731315637312e303934384839372e333635364838322e393733355636362e343230325636312e373435364837332e333738384836332e373834315635372e303731315635322e333936354835342e313839344834342e353934375635372e303731315636312e373435364833392e373937344833355637352e373639335638392e3739334833392e373937344834342e353934375639342e343637365639392e313432324833392e37393734483335563130382e343931563131372e38344833392e373937344834342e35393437563132322e353135563132372e31394834392e333932314835342e31383934563133312e383634563133362e3533394835382e393836384836332e37383431563134312e323133563134352e3838384837332e333738384838322e39373335563135352e323337563136342e3538364838372e373730394839322e35363832563136392e323631563137332e393335483131362e353535483134302e353432563136392e323631563136342e353836483134352e333339483135302e313336563135352e323337563134352e383838483135392e373331483136392e333236563134312e323133563133362e353339483137342e313233483137382e393231563133312e383634563132372e3139483138332e373138483138382e353135563130382e3439315638392e373933483138332e373138483137382e3932315638302e343433395637312e30393438483138332e373138483138382e3531355636362e343230325636312e37343536483138332e373138483137382e3932315635322e333936355634332e30343734483137342e313233483136392e3332365633382e333732385633332e36393832483136342e353239483135392e3733315632392e303233365632342e33343931483135342e393334483135302e3133365631392e363734355631342e39393939483133302e393437483131312e3735385632342e333439315a4d3136392e3332362035322e333936355636312e37343536483137342e313233483137382e3932315636362e343230325637312e30393438483136392e333236483135392e3733315637352e373639335638302e34343339483136342e353239483136392e3332365638352e313138355638392e373933483137342e313233483137382e393231563130382e343931563132372e3139483136392e333236483135392e373331563133312e383634563133362e353339483135302e313336483134302e353432563134312e323133563134352e383838483132362e3135483131312e373538563134312e323133563133362e353339483130362e3936483130322e313633563133312e383634563132372e3139483131312e373538483132312e333532563132322e353135563131372e3834483130322e3136334838322e39373335563131332e313636563130382e3439314838372e373730394839322e35363832563130332e3831375639392e313432324838322e393733354837332e33373838563131332e313636563132372e31394837382e313736324838322e39373335563133312e383634563133362e3533394837382e313736324837332e33373838563133312e383634563132372e31394836332e373834314835342e31383934563131372e3834563130382e3439314834392e333932314834342e35393437563130332e3831375639392e313432324835342e313839344836332e373834315639342e343637365638392e3739334835382e393836384835342e313839345638352e313138355638302e343433394834392e333932314834342e353934375637312e303934385636312e373435364835342e313839344836332e373834315636362e343230325637312e303934384837332e333738384838322e393733355637352e373639335638302e343433394839372e33363536483131312e3735385637352e373639335637312e30393438483131362e353535483132312e3335325635372e303731315634332e30343734483134352e333339483136392e3332365635322e333936355a4d3130322e313633203135302e353632563135352e323337483131312e373538483132312e333532563135392e393132563136342e353836483130362e39364839322e35363832563135352e323337563134352e3838384839372e33363536483130322e313633563135302e3536325a4d3134302e353432203135392e393132563136342e353836483133352e373434483133302e393437563135392e393132563135352e323337483133352e373434483134302e353432563135392e3931325a272066696c6c3d277768697465272f3e3c7061746820643d274d3134302e3534322036362e343230335638302e343434483134352e333339483135302e3133375636362e343230335635322e33393636483134352e333339483134302e3534325636362e343230335a272066696c6c3d277768697465272f3e3c7061746820643d274d3132312e333532203131332e313636563131372e3834483132362e3135483133302e393437563131332e313636563130382e343931483132362e3135483132312e333532563131332e3136365a272066696c6c3d277768697465272f3e3c7374796c653e2e62617365207b2066696c6c3a2077686974653b20666f6e742d7765696768743a203730303b20666f6e742d73697a653a20323470783b207d3c2f7374796c653e3c7465787420783d273530252720793d273930252720636c6173733d27626173652720646f6d696e616e742d626173656c696e653d276d6964646c652720746578742d616e63686f723d276d6964646c65273e",
  "linkReferences": {},
  "deployedLinkReferences": {}
}